:0400000007EF00F016
:0A0008005F8253ED17F080EF17F050
:1008000000C60880084C08090809024300020100DC
:10081000C032090400000102020100052400100199
:100820000424020205240600010524010001070535
:1008300081030A000209040100020A000000070502
:10084000020240000007058202400000340343001A
:10085000440043002000520053002D0032003300BA
:100860003200200045006D0075006C0061007400CE
:1008700069006F006E002000440065006D006F008D
:1008800034034D006900630072006F00630068006C
:1008900069007000200054006500630068006E006D
:1008A0006F006C006F0067007900200049006E0047
:1008B00063002E001201000202000008D8040A00A2
:1008C000000101020001040309040D0A0A000D0AD7
:1008D000000004013205D8A470EF04F072EF04F0B8
:1008E0008CEF04F030511F0B0009D8A47AEF04F00C
:1008F0007CEF04F08CEF04F0418E030E3119D8A484
:1009000084EF04F086EF04F08AEF04F0010E596ED4
:100910008CEF04F0000E596E3251D8A492EF04F01F
:1009200094EF04F012EF06F030511F0B020AD8A426
:100930009CEF04F09EEF04F012EF06F034510F0B21
:100940000009D8B4A6EF04F0A8EF04F012EF06F007
:1009500034510F0B156E030E1560B1EF04F0B3EFB9
:1009600004F012EF06F0200E5C18D8A4BAEF04F0E1
:10097000BCEF04F012EF06F0418E34BFC2EF04F07A
:10098000C4EF04F0E1EF04F034510F0B156E155075
:10099000020D6A0EF324D96E000EF420DA6EDECF5B
:1009A0001AF0DDCF1BF034510F0B156E166A7E0E58
:1009B0001524D96E000E1620DA6EDF50196EFCEF8A
:1009C00004F034510F0B156E1550020D440EF32434
:1009D000D96E000EF420DA6EDECF1AF0DDCF1BF0F8
:1009E00034510F0B156E166A810E1524D96E000E48
:1009F0001620DA6EDF50196E19B001EF05F003EF23
:100A000005F00BEF05F0FB0E1A141A6EFF0E1B1407
:100A10001B6E10EF05F0040E1A101A6E1B501B6EA1
:100A200034BF15EF05F017EF05F028EF05F034514E
:100A30000F0B156E1550020D6A0EF324D96E000EC1
:100A4000F420DA6E1AC0DEFF1BC0DDFF37EF05F0C1
:100A500034510F0B156E1550020D440EF324D96E50
:100A6000000EF420DA6E1AC0DEFF1BC0DDFF030E9D
:100A70003119D8A43EEF05F040EF05F07AEF05F00C
:100A80001AC0D9FF1BC0DAFFDFAE49EF05F04BEF0C
:100A900005F06CEF05F034BF50EF05F052EF05F0B4
:100AA00060EF05F034510F0B156E166A7E0E15249B
:100AB000D96E000E1620DA6E0001DF826CEF05F0B1
:100AC00034510F0B156E166A810E1524D96E000E67
:100AD0001620DA6E0001DF821AC0D9FF1BC0DAFFD0
:100AE000000EDB841AC0D9FF1BC0DAFF000EDB8EBC
:100AF00012EF06F0040E1A181A6E1B501B6E1AC065
:100B0000D9FF1BC0DAFFDFAE88EF05F08AEF05F0F2
:100B1000A6EF05F01AC0D9FF1BC0DAFF7F0EDF1663
:100B20001AC0D9FF1BC0DAFF000EDB8C000E0E6E60
:100B3000050E0D6E1AC00FF01BC010F0000E126EE5
:100B4000020E116ED2EC13F0ACEF05F01AC0D9FF13
:100B50001BC0DAFF000EDB8C040E1A181A6E1B5035
:100B60001B6E19B2B6EF05F0B8EF05F0C3EF05F054
:100B70001AC0D9FF1BC0DAFFDFAEC1EF05F0C3EF2B
:100B800005F0FBEF05F0040134BFC9EF05F0CBEF32
:100B900005F0D9EF05F034510F0B156E166A7E0E75
:100BA0001524D96E000E1620DA6E0001DF92E5EFF3
:100BB00005F034510F0B156E166A810E1524D96E8F
:100BC000000E1620DA6E0001DF921AC0D9FF1BC09A
:100BD000DAFF3B0EDF16000E0E6E050E0D6E1AC00C
:100BE0000FF01BC010F0000E126E020E116ED2EC50
:100BF00013F001EF06F01AC0D9FF1BC0DAFF3B0E5D
:100C0000DF16040134510F0B156E166A700E152491
:100C1000176E0F0E1620186E17C0D9FF18C0DAFF16
:100C2000FE0EDF161200200E5C6019EF06F01BEFBF
:100C300006F01DEF06F03EEF07F06DA222EF06F082
:100C400024EF06F026EF06F03EEF07F0010E91ECE0
:100C500015F0E806D8A42FEF06F031EF06F04DEFBF
:100C600006F000018B51D8A438EF06F03AEF06F0F9
:100C700050EF06F05150D8A440EF06F042EF06F0D6
:100C800050EF06F0E40E2A6E000E2B6E59EC15F0B4
:100C9000010E00018B6F50EF06F0000E00018B6F0C
:100CA0005150D8A456EF06F058EF06F03CEF07F08D
:100CB000030EE3615EEF06F060EF06F07CEF06F0F6
:100CC000000E2A6E010E2B6E000E2D6E000E2C6E85
:100CD000000E2F6E400E2E6E1FEC09F0000E2A6ED5
:100CE000010E2B6ECE0E2C6E080E2D6E000E2F6E8A
:100CF000020E2E6EC7EC15F0920E0001F66F000E7C
:100D0000F76F400EF86F1AEC13F00001FA6F000E47
:100D1000FB6FECEF06F0920EFB25D96EDA6A000E3F
:100D2000DA220D0EDE18D8B498EF06F09AEF06F02E
:100D3000A9EF06F0920EFB25D96EDA6A000EDA22D0
:100D40000A0EDE18D8A4A7EF06F0A9EF06F0ADEF63
:100D500006F0010E8A6FF5EF06F0920EFB25D96EB4
:100D6000DA6A000EDA22600EDF64B9EF06F0BBEF3C
:100D700006F0DAEF06F0920EFB25D96EDA6A000E65
:100D8000DA227B0EDF60C7EF06F0C9EF06F0DAEF7C
:100D900006F0000EE325D96EDA6A010EDA22920E11
:100DA000FB25E16EE26A000EE222E750E00FDF6E03
:100DB000E8EF06F0920EFB25D96EDA6A000EDA2211
:100DC000000EE325E16EE26A010EE222DFCFE7FFCB
:100DD000E32B000E8A6FFB2BFA51FB5DD8A0F3EFDB
:100DE00006F0F5EF06F08BEF06F08A05D8A4FBEFCE
:100DF00006F0FDEF06F024EF07F0FA51D8B403EF48
:100E000007F005EF07F024EF07F0010EE3252A6E47
:100E10002B6A010E2B22CA0E2C6E080E2D6E000EB0
:100E20002F6E030E2E6EC7EC15F0000E2A6E010E0B
:100E30002B6E0001E351040F2C6ED3EC18F0020E60
:100E40000001E36F3CEF07F08A51D8A42AEF07F0C6
:100E50002CEF07F03CEF07F0FA51D8B432EF07F06F
:100E600034EF07F03CEF07F0000E2A6E010E2B6EF8
:100E7000FAC02CF0D3EC18F053EC08F012005C042C
:100E8000D8A445EF07F047EF07F054EF07F06DBA2D
:100E90004CEF07F04EEF07F054EF07F0000E686ECE
:100EA00069806988020E5C6E68A459EF07F05BEFF9
:100EB00007F065EF07F069A460EF07F062EF07F055
:100EC00065EF07F0689482EC18F06DA26AEF07F006
:100ED0006CEF07F06FEF07F0A19A52EF08F068A0EF
:100EE00074EF07F076EF07F083EF07F069A07BEF70
:100EF00007F07DEF07F083EF07F0EBEC0BF0A08A33
:100F0000040E5C6E689068A888EF07F08AEF07F01F
:100F100093EF07F069A88FEF07F091EF07F093EFD9
:100F200007F0BCEC18F068AC98EF07F09AEF07F008
:100F3000C5EF07F069AC9FEF07F0A1EF07F0AFEF47
:100F400007F0000E0E6E730E0D6E000E0F6E000E8B
:100F5000106E000E126E010E116ED2EC13F0689C32
:100F6000A2EC18F05550D8B4B8EF07F0BAEF07F07C
:100F7000BBEF07F055065550D8A4C1EF07F0C3EFFB
:100F800007F0C5EF07F02FEC12F068AACAEF07F0E0
:100F9000CCEF07F0D5EF07F069AAD1EF07F0D3EF58
:100FA00007F0D5EF07F023EC17F068A2DAEF07F0AF
:100FB000DCEF07F0F2EF07F069A2E1EF07F0E3EFF3
:100FC00007F0F2EF07F07F0E0E6E0D68000E0F6E49
:100FD000000E106E000E126E010E116ED2EC13F0A8
:100FE000000E6A6E040E5C60F8EF07F0FAEF07F08F
:100FF000FDEF07F0A19A52EF08F069A602EF08F0A2
:1010000004EF08F051EF08F0000E1F6E68A60BEF1A
:1010100008F00DEF08F051EF08F06CCF5DF05D3097
:10102000E832E8320F0B576E68965DB41AEF08F09D
:101030001CEF08F026EF08F07E0E5724D96EDA6A0E
:10104000000EDA220001DF702EEF08F0810E572427
:10105000D96EDA6A000EDA220001DF705750D8A488
:1010600034EF08F036EF08F03AEF08F076EC13F0C2
:1010700048EF08F0000E0E6E720E0D6E5D0E0F6ED4
:10108000000E106E000E126E000E116ED2EC13F0F8
:101090001F2A030E1F644FEF08F051EF08F006EF10
:1010A00008F0A19A1200A09A000184518511D8B4C9
:1010B0005CEF08F05EEF08F06CEF08F084C0D9FF39
:1010C00085C0DAFFDFAE67EF08F069EF08F06CEF7C
:1010D00008F0A08A1EEF09F0030E5118D8A473EF90
:1010E00008F075EF08F077EF08F0000E516E5150E0
:1010F000D8A47DEF08F07FEF08F082EF08F0A08A17
:101100001EEF09F0020E5118D8A489EF08F08BEFFA
:1011100008F09EEF08F0010E2A6E000E2B6E000EF6
:101120002C6E000E2D6E020ED3EC0DF02AC084F052
:101130002BC085F0030E516E1DEF09F05104D8A4A9
:10114000A4EF08F0A6EF08F01DEF09F0400E506480
:10115000ACEF08F0AEEF08F0B2EF08F0400EF76F1A
:10116000B4EF08F050C0F7F0F751505C506E000E2D
:10117000786F050E796FF7C0F6F08D51D8A4C3EFE4
:1011800008F0C5EF08F0EFEF08F0D6EF08F07BC0ED
:10119000D9FF7CC0DAFF78C0E1FF79C0E2FFDFCF82
:1011A000E7FF784B792B7B4B7C2BF607F651D8A4C5
:1011B000DCEF08F0DEEF08F0C7EF08F0F7EF08F01B
:1011C0007BC0D9FF7CC0DAFF78C0E1FF79C0E2FFC5
:1011D000DFCFE7FF784B792B7B4B7C2BF607F65163
:1011E000D8A4F5EF08F0F7EF08F0E0EF08F0505062
:1011F000D8A4FDEF08F0FFEF08F00EEF09F0400E65
:10120000F719D8A406EF09F008EF09F00CEF09F080
:10121000020E516E0EEF09F0030E516E010E2A6E92
:10122000000E2B6E050E2C6EF7C02DF0020ED3ECC7
:101230000DF02AC084F02BC085F0A08A12002AC0CD
:1012400034F02BC035F02E502F10D8A42AEF09F01F
:101250002CEF09F02EEF09F0D9EF09F034C0D9FFD7
:1012600035C0DAFF2CC0DFFF2E503424306E2F50F3
:101270003520316EFF0E3024D96EFF0E3120DA6E2C
:101280002CC0DFFF2F5007E1030E2E5CD8B04BEFD0
:1012900009F04DEF09F04FEF09F0D9EF09F020EE1A
:1012A00001F03450D9263550DA222CC0DFFF20EE71
:1012B00002F03450D9263550DA222CC0DFFF2E50F0
:1012C0003424306E2F503520316EFE0E3024D96E0E
:1012D000FF0E3120DA6E2CC0DFFF2E503424306E2A
:1012E0002F503520316EFD0E3024D96EFF0E312087
:1012F000DA6E2CC0DFFF2F5007E1070E2E5CD8B04E
:1013000084EF09F086EF09F088EF09F0D9EF09F0D2
:1013100020EE03F03450D9263550DA222CC0DFFFFE
:101320002E503424306E2F503520316EFC0E302478
:10133000D96EFF0E3120DA6E2CC0DFFF2F5007E18F
:10134000090E2E5CD8B0A7EF09F0A9EF09F0ABEFBA
:1013500009F0D9EF09F034C030F035C031F0301E5B
:10136000311E304A312A030E3014326E336A325045
:1013700034263350352232502E5E33502F5AFC0E15
:101380002E16FF0E2F16D0EF09F034C0D9FF35C04E
:10139000DAFF2CC0DFFF2E06D8A02F06344A352AEC
:1013A0002E502F10D8A4D7EF09F0D9EF09F0C5EFD0
:1013B00009F0120001C00BF002C00CF0055006103D
:1013C000D8A4E5EF09F0E7EF09F0E9EF09F094EFB1
:1013D0000AF00BC0D9FF0CC0DAFF03C0DFFF0550D5
:1013E0000B24076E06500C20086EFF0E0724D96EE2
:1013F000FF0E0820DA6E03C0DFFF065007E1030E80
:10140000055CD8B006EF0AF008EF0AF00AEF0AF020
:1014100094EF0AF020EE01F00B50D9260C50DA229E
:1014200003C0DFFF20EE02F00B50D9260C50DA2269
:1014300003C0DFFF05500B24076E06500C20086E1A
:10144000FE0E0724D96EFF0E0820DA6E03C0DFFF00
:1014500005500B24076E06500C20086EFD0E072465
:10146000D96EFF0E0820DA6E03C0DFFF065007E1D9
:10147000070E055CD8B03FEF0AF041EF0AF043EFEA
:101480000AF094EF0AF020EE03F00B50D9260C502E
:10149000DA2203C0DFFF05500B24076E06500C2034
:1014A000086EFC0E0724D96EFF0E0820DA6E03C00A
:1014B000DFFF065007E1090E055CD8B062EF0AF0C5
:1014C00064EF0AF066EF0AF094EF0AF00BC007F041
:1014D0000CC008F0071E081E074A082A030E07144E
:1014E000096E0A6A09500B260A500C220950055E43
:1014F0000A50065AFC0E0516FF0E06168BEF0AF070
:101500000BC0D9FF0CC0DAFF03C0DFFF0506D8A06F
:1015100006060B4A0C2A05500610D8A492EF0AF0D2
:1015200094EF0AF080EF0AF01200800E04013019E7
:10153000D8A49DEF0AF09FEF0AF044EF0BF0C00E25
:10154000416E2BEF0BF0B40E3E6E080E3F6E000E98
:10155000436E120E426E44EF0BF03251D8A4B3EF3B
:101560000AF0B5EF0AF0F3EF0AF03251020D070E60
:10157000F324F66E080EF420F76E0900F5CF3EF066
:101580000A00F5CF3FF0020E3E24016E000E3F2010
:10159000026E01C0F6FF02C0F7FFF86A070EF7649B
:1015A00003D00800F55005D0F6CFE1FFF7CFE2FFFA
:1015B000E750426E030E3E24016E000E3F20026E85
:1015C00001C0F6FF02C0F7FFF86A070EF76403D008
:1015D0000800F55005D0F6CFE1FFF7CFE2FFE75066
:1015E000436E44EF0BF0000E416E44EF0BF0030E20
:1015F0003261FDEF0AF0FFEF0AF023EF0BF03251FA
:10160000020D010EF324F66E080EF420F76E0900A9
:10161000F5CF3EF00A00F5CF3FF03EC0F6FF3FC0E9
:10162000F7FFF86A070EF76403D00800F55005D0FD
:10163000F6CFE1FFF7CFE2FFE750016E0150426EB7
:10164000436A44EF0BF0000E416E44EF0BF0000EC6
:10165000416E44EF0BF03351016E026A0250000AF2
:10166000D8B435EF0BF027EF0BF00150010AD8B4D6
:10167000A3EF0AF0030AD8B4ADEF0AF0010AD8B418
:10168000F7EF0AF027EF0BF01200A09A000E6A6E37
:10169000000E686E000E706E710E2A6E0F0E2B6EAD
:1016A000000E2D6E000E2C6E000E2F6E020E2E6E92
:1016B0001FEC09F0160E6F6E9F0E6B6E7B0E696E3F
:1016C000000E0001F66FF651040D000EF324D96EE2
:1016D000040EF420DA6EDE6ADE6ADE6ADD6AF62B5C
:1016E0000B0EF66576EF0BF078EF0BF063EF0BF077
:1016F0006D8C000E6E6E6D986D9C6896000E416E3E
:10170000000E396E000E3B6E000E3A6E68B68BEF1F
:101710000BF08DEF0BF07DEF0BF0010E536E010E11
:10172000526E000E0001916F000E906F000E586E09
:10173000000EF66FF651020D440EF324D96E000E22
:10174000F420DA6E000EDE6E000EDD6EF651020D34
:101750006A0EF324D96E000EF420DA6E000EDE6EEF
:10176000000EDD6E810EF625D96EDA6A000EDA22E1
:10177000000EDF6E7E0EF625D96EDA6A000EDA22D2
:10178000000EDF6EF62B020EF665C9EF0BF0CBEF05
:101790000BF09AEF0BF0080E446E040E456E160E19
:1017A000706E040E0401036F300E026F080E016F9D
:1017B000040E006F008F000E5E6E000E0001746F4D
:1017C000000E756F000E766F000E776F000E8F6F34
:1017D000000E5C6E1200A09A000E6A6E000E686E1B
:1017E000000E706E710E016E0F0E026E000E046E12
:1017F000000E036E000E066E020E056EDAEC09F0A6
:10180000160E6F6E9F0E6B6E7B0E696E000E0D6E68
:101810000D50040D000EF324D96E040EF420DA6E80
:10182000DE6ADE6ADE6ADD6A0D2A0B0E0D641BEFCE
:101830000CF01DEF0CF008EF0CF06D8C000E6E6ECE
:101840006D986D9C6896000E416E000E396E000E0C
:101850003B6E000E3A6E68B630EF0CF032EF0CF0D3
:1018600022EF0CF0010E536E010E526E000E0001BD
:10187000916F000E906F000E586E000E0D6E0D50A1
:10188000020D440EF324D96E000EF420DA6E000E21
:10189000DE6E000EDD6E0D50020D6A0EF324D96E61
:1018A000000EF420DA6E000EDE6E000EDD6E810E8C
:1018B0000D24D96EDA6A000EDA22000EDF6E7E0E7B
:1018C0000D24D96EDA6A000EDA22000EDF6E0D2AC0
:1018D000020E0D646EEF0CF070EF0CF03FEF0CF0A9
:1018E000080E446E040E456E160E706E040E040152
:1018F000036F300E026F080E016F040E006F008F31
:10190000000E5E6E000E0001746F000E756F000E0B
:10191000766F000E776F000E8F6F000E5C6E1200F8
:101920006D9841BE96EF0CF098EF0CF0DEEF0CF0E6
:1019300039AE9DEF0CF09FEF0CF0B2EF0CF0020E01
:101940005A6E00019051D8A4A8EF0CF0AAEF0CF049
:10195000ACEF0CF02AEC14F0000E526E000E536E39
:1019600031EF0DF020EE01F04C50D9264D50DA2227
:10197000080EDF6E20EE02F04C50D9264D50DA22D0
:10198000300EDE6E040EDD6E4CC0D9FF4DC0DAFFA6
:101990000C0EDF6E4CC0D9FF4DC0DAFF000EDB8E9F
:1019A00044C0D9FF45C0DAFF040EDF6E44C0D9FF42
:1019B00045C0DAFF000EDB8E31EF0DF0040130AFD1
:1019C000E4EF0CF0E6EF0CF003EF0DF0010E5A6EB1
:1019D00000019151D8A4EFEF0CF0F1EF0CF0F3EF10
:1019E0000CF02AEC14F0000E526E000E536E5450A0
:1019F000D8A4FDEF0CF0FFEF0CF031EF0DF02FEC61
:101A000012F031EF0DF0020E5A6E20EE01F04C5044
:101A1000D9264D50DA22080EDF6E20EE02F04C502F
:101A2000D9264D50DA22300EDE6E040EDD6E4CC02B
:101A3000D9FF4DC0DAFF040EDF6E4CC0D9FF4DC098
:101A4000DAFF000EDB8E000E526E000E536E545005
:101A5000D8A42DEF0DF02FEF0DF031EF0DF0FFEFCB
:101A60000CF0120020EE01F04E50D9264F50DA2231
:101A7000DF50026E02503A5C000E3B58D8B043EF84
:101A80000DF045EF0DF047EF0DF03AC002F00250B7
:101A90003A5E000E3B5A000E016E5EEF0DF0380EFE
:101AA0000124D96EDA6A040EDA2236C0E1FF37C0AB
:101AB000E2FFDFCFE7FF364A372A012A0250015CF6
:101AC000D8A065EF0DF067EF0DF04FEF0DF03A5035
:101AD0003B10D8B46EEF0DF070EF0DF0A9EF0DF0E4
:101AE00020EE01F04C50D9264D50DA22080EDF6E60
:101AF00020EE02F04C50D9264D50DA22380EDE6E20
:101B0000040EDD6E4EC0D9FF4FC0DAFFDFBC8BEF95
:101B10000DF08DEF0DF09BEF0DF04CC0D9FF4DC0D7
:101B2000DAFF480EDF6E4CC0D9FF4DC0DAFF000E61
:101B3000DB8ED2EF0DF04CC0D9FF4DC0DAFF080E9E
:101B4000DF6E4CC0D9FF4DC0DAFF000EDB8ED2EF46
:101B50000DF020EE01F04C50D9264D50DA22080E3F
:101B6000DF6E20EE02F04C50D9264D50DA22300EB6
:101B7000DE6E040EDD6E4CC0D9FF4DC0DAFF040EE0
:101B8000DF6E4CC0D9FF4DC0DAFF000EDB8E399EF0
:101B90005450D8A4CEEF0DF0D0EF0DF0D2EF0DF0F1
:101BA0002FEC12F01200326E2A50D8B4DAEF0DF09A
:101BB000DCEF0DF0EAEF0DF03250020D440EF3248D
:101BC000D96E000EF420DA6EDECF33F0DDCF34F0C4
:101BD000F6EF0DF03250020D6A0EF324D96E000EAE
:101BE000F420DA6EDECF33F0DDCF34F03350341032
:101BF000D8A4FDEF0DF0FFEF0DF005EF0EF0000E95
:101C00002A6E000E2B6E71EF0EF020EE02F03350B4
:101C1000D9263450DA222BC0DEFF2CC0DDFF20EEA7
:101C200001F03350D9263450DA222DC0DFFF33C003
:101C3000D9FF34C0DAFF400EDF1633C0D9FF34C0FD
:101C4000DAFF000EDB8633C0D9FF34C0DAFF000EA6
:101C5000DB8E2A50D8B42FEF0EF031EF0EF050EF9C
:101C60000EF03250020D440EF324D96E000EF42013
:101C7000DA6EDECF2EF0DDCF2FF0040E2E18306E90
:101C80002F50316E3250020D440EF324D96E000EE7
:101C9000F420DA6E30C0DEFF31C0DDFF6DEF0EF0F4
:101CA0003250020D6A0EF324D96E000EF420DA6E63
:101CB000DECF2EF0DDCF2FF0040E2E18306E2F5019
:101CC000316E3250020D6A0EF324D96E000EF420EC
:101CD000DA6E30C0DEFF31C0DDFF33C02AF034C021
:101CE0002BF01200096E0150D8B479EF0EF07BEFA3
:101CF0000EF089EF0EF00950020D440EF324D96E58
:101D0000000EF420DA6EDECF0AF0DDCF0BF095EF97
:101D10000EF00950020D6A0EF324D96E000EF42065
:101D2000DA6EDECF0AF0DDCF0BF00A500B10D8A42C
:101D30009CEF0EF09EEF0EF0A4EF0EF0000E016E81
:101D4000000E026E10EF0FF020EE02F00A50D926BE
:101D50000B50DA2202C0DEFF03C0DDFF20EE01F0EF
:101D60000A50D9260B50DA2204C0DFFF0AC0D9FF7F
:101D70000BC0DAFF400EDF160AC0D9FF0BC0DAFF36
:101D8000000EDB860AC0D9FF0BC0DAFF000EDB8E27
:101D90000150D8B4CEEF0EF0D0EF0EF0EFEF0EF012
:101DA0000950020D440EF324D96E000EF420DA6EB1
:101DB000DECF05F0DDCF06F0040E0518076E0650E5
:101DC000086E0950020D440EF324D96E000EF42063
:101DD000DA6E07C0DEFF08C0DDFF0CEF0FF0095020
:101DE000020D6A0EF324D96E000EF420DA6EDECFF7
:101DF00005F0DDCF06F0040E0518076E0650086EDC
:101E00000950020D6A0EF324D96E000EF420DA6E2A
:101E100007C0DEFF08C0DDFF0AC001F00BC002F002
:101E2000120004013039E832030B0009D8B41BEF6B
:101E30000FF01DEF0FF065EF0FF09EEF0FF0418EEA
:101E4000080E5C6E9EEF0FF095EC0AF09EEF0FF01F
:101E5000A7EC12F09EEF0FF05E0E3E6E000E3F6E8E
:101E60004180010E426E418E9EEF0FF09FEC0FF00D
:101E70009EEF0FF069EC04F09EEF0FF0E10E3425B9
:101E80003E6E3F6A000E3F224180010E426E418E3F
:101E90009EEF0FF0418EE10E3425D96EDA6A000E06
:101EA000DA2232C4DFFF9EEF0FF0000E0E6E020E3C
:101EB0000D6E000E0F6E000E106E000E126E000EF4
:101EC000116ED2EC13F09EEF0FF031511C6E1D6AB3
:101ED0001D50000AD8B46FEF0FF09EEF0FF01C50AA
:101EE000000AD8B436EF0FF0010AD8B43AEF0FF079
:101EF000020AD8B43AEF0FF0060AD8B41FEF0FF079
:101F0000030AD8B424EF0FF0010AD8B455EF0FF04C
:101F10000F0AD8B42CEF0FF0010AD8B428EF0FF055
:101F2000030AD8B43EEF0FF0010AD8B44AEF0FF01D
:101F3000070AD8B49EEF0FF09EEF0FF01200000ECC
:101F40000401386F000E396F01EF10F0418E590413
:101F5000D8A4ADEF0FF0AFEF0FF01BEF10F0388308
:101F60001BEF10F0418E1BEF10F0418E34510F0B20
:101F70000009D8B4BEEF0FF0C0EF0FF01BEF10F068
:101F800034BFC5EF0FF0C7EF0FF0D8EF0FF03451AB
:101F90000F0B016E0150020D6A0EF324D96E000E74
:101FA000F420DA6EDECF03F0DDCF04F0E7EF0FF0C0
:101FB00034510F0B016E0150020D440EF324D96E03
:101FC000000EF420DA6EDECF03F0DDCF04F003C0A4
:101FD000D9FF04C0DAFFDFAEF0EF0FF0F2EF0FF041
:101FE0001BEF10F003C0D9FF04C0DAFFDFA4FBEF42
:101FF0000FF0FDEF0FF01BEF10F0010E386F1BEF2D
:1020000010F030511F0B016E026A0250000AD8B462
:102010000CEF10F01BEF10F00150000AD8B4A6EF3F
:102020000FF0010AD8B4B2EF0FF0030AD8B4B5EF3D
:102030000FF01BEF10F041AE20EF10F022EF10F088
:1020400029EF10F0380E3E6E040E3F6E4180020EF6
:10205000426E1200080E016E435007E1080E425C0A
:10206000D8B035EF10F037EF10F04FEF10F042C05E
:1020700001F05B50D8A43FEF10F041EF10F045EFB6
:1020800010F0010E5B6E4FEF10F05B04D8A44BEF25
:1020900010F04DEF10F04FEF10F0020E5B6E01509C
:1020A000425E000E435A20EE01F04450D9264550BE
:1020B000DA2201C0DFFF380E0001886F040E896F3D
:1020C00041B065EF10F067EF10F0A9EF10F084EF6A
:1020D00010F03EC0F6FF3FC0F7FFF86A88C0D9FF96
:1020E00089C0DAFF070EF76403D00800F55005D069
:1020F000F6CFE1FFF7CFE2FFE750DF6E3E4A3F2A1F
:102100000001884B892B01060150D8A48AEF10F0FA
:102110008CEF10F069EF10F0B1EF10F03EC0F6FF59
:102120003FC0F7FFF86A88C0D9FF89C0DAFF070E01
:10213000F76403D00800F55005D0F6CFE1FFF7CFE4
:10214000E2FFE750DF6E3E4A3F2A0001884B892BB1
:1021500001060150D8A4AFEF10F0B1EF10F08EEFF0
:1021600010F0120044C0D9FF45C0DAFF000EDFBCFA
:10217000010E026E040E4418446E4550456E080E62
:102180005C18D8A4C6EF10F0C8EF10F0DAEF10F02A
:10219000040132517F0B6E6E6E50D8B4D2EF10F046
:1021A000D4EF10F0D8EF10F0100E5C6EDAEF10F0F4
:1021B000040E5C6E5A04D8A4E0EF10F0E2EF10F0C9
:1021C00029EF11F020EE02F04450D9264550DA22D2
:1021D000380EDE6E040EDD6E2AEC10F0020E5B1877
:1021E000D8A4F5EF10F0F7EF10F005EF11F044C0B0
:1021F000D9FF45C0DAFF040EDF6E44C0D9FF45C0E9
:10220000DAFF000EDB8E33EF11F00250D8A40BEF93
:1022100011F00DEF11F01BEF11F044C0D9FF45C0D4
:10222000DAFF480EDF6E44C0D9FF45C0DAFF000E6A
:10223000DB8E33EF11F044C0D9FF45C0DAFF080E42
:10224000DF6E44C0D9FF45C0DAFF000EDB8E33EFEE
:1022500011F039AE2EEF11F030EF11F031EF11F037
:10226000399E000E5A6E1200040130511F0BE80611
:10227000D8B43DEF11F03FEF11F041EF11F0B4EFA2
:1022800011F03039E832030BE806D8B44AEF11F008
:102290004CEF11F04EEF11F0B4EF11F03451D8B40F
:1022A00054EF11F056EF11F093EF11F03405D8B45C
:1022B0005CEF11F05EEF11F093EF11F0B4EF11F05D
:1022C000D20E3E6E000E3F6E000E436E080E426E42
:1022D0004180418EB4EF11F0D20E3E6E000E3F6E83
:1022E000418EB4EF11F036C43AF037C43BF0DA0E49
:1022F000366E000E376E000E3C6E000E3D6E398E4F
:10230000B4EF11F0DA0E3E6E000E3F6E000E436E1B
:10231000070E426EC10E416EB4EF11F032C48CF064
:10232000418EB4EF11F03151016E026A0250000A81
:10233000D8B49DEF11F0B4EF11F00150000AD8B4F9
:1023400060EF11F0010AD8B46CEF11F0210AD8B493
:1023500073EF11F0010AD8B482EF11F0030AD8B478
:102360008EEF11F0B4EF11F012006DA2BAEF11F080
:10237000BCEF11F01BEF12F0010EF2EC16F02EEF95
:1023800012F04A044B10D8A4C8EF11F0CAEF11F0B4
:10239000CFEF11F0010EC1EC16F02CEF12F04B0E46
:1023A0004A184B10D8A4D7EF11F0D9EF11F0DEEF97
:1023B00011F0010EF2EC16F02CEF12F04B5009E187
:1023C000970E4A5CD8A0E7EF11F0E9EF11F0EFEFBC
:1023D00011F0000E4B6E000E4A6E2CEF12F02CEF37
:1023E00012F04A044B10D8A4F8EF11F0FAEF11F0F4
:1023F000FFEF11F0010EC1EC16F02CEF12F0320ECF
:102400004A184B10D8A407EF12F009EF12F00EEFA4
:1024100012F0010EF2EC16F02CEF12F0B70E4A5C3F
:10242000030E4B58D8A017EF12F019EF12F02CEF53
:1024300012F0E9EF11F05C50046E056A0550000AD5
:10244000D8B425EF12F0F1EF11F00450200AD8B4FF
:10245000C1EF11F0F1EF11F04A4A4B2A120053502C
:10246000D8A435EF12F037EF12F0A6EF12F0010EFC
:10247000536E5250D8A43FEF12F041EF12F0A6EF86
:1024800012F0010E526E020E5A18D8A44AEF12F042
:102490004CEF12F062EF12F020EE01F04450D9261A
:1024A0004550DA22000EDF6E44C0D9FF45C0DAFF86
:1024B000480EDF6E44C0D9FF45C0DAFF000EDB8E48
:1024C000A6EF12F05A04D8A468EF12F06AEF12F0E7
:1024D000A6EF12F0000E566E20EE01F04E50D926F7
:1024E0004F50DA22080EDF6E20EE02F04E50D92651
:1024F0004F50DA22300EDE6E040EDD6E4EC0D9FF74
:102500004FC0DAFF040EDF6E4EC0D9FF4FC0DAFFB6
:10251000000EDB8E010E566E20EE01F04C50D926D7
:102520004D50DA22080EDF6E20EE02F04C50D92614
:102530004D50DA22300EDE6E040EDD6E4CC0D9FF37
:102540004DC0DAFF800EDF6EA6EF12F01200418E52
:10255000710E016E0F0E026E000E046E000E036E01
:10256000000E066E020E056EDAEC09F0000E016E2A
:10257000040E026E000E046E000E036E000E066E58
:10258000300E056EDAEC09F06D8C000E156E810EC2
:102590001524D96EDA6A000EDA22000EDF6E7E0E86
:1025A0001524D96EDA6A000EDA22000EDF6E152AC3
:1025B000020E1564DEEF12F0E0EF12F0C7EF12F03A
:1025C000E10E016E000E026E000E046E000E036E30
:1025D000000E066E020E056EDAEC09F06D9C080E18
:1025E000446E040E456E000E4E6E040E4F6E4EC0CD
:1025F0004CF04FC04DF032C45EF05E50D8A403EFF3
:1026000013F005EF13F009EF13F0100E5C6E19EFE5
:1026100013F0000E0E6E010E0D6E5E0E0F6E000EAC
:10262000106E000E126E010E116ED2EC13F0200E21
:102630005C6E1200000E00018E6F86518711D8B4B7
:1026400024EF13F026EF13F031EF13F086C0D9FF1B
:1026500087C0DAFFDFBE2FEF13F031EF13F073EF17
:1026600013F020EE01F08651D9268751DA22F85175
:10267000DE5CD8B03EEF13F040EF13F048EF13F0FC
:1026800020EE01F08651D9268751DA22DF50F86F0B
:10269000000E8E6F5BEF13F0400E8E25D96EDA6A56
:1026A000050EDA228E51F625E16E000EF721E26E5C
:1026B000DFCFE7FF8E2BF8518E5DD8A062EF13F0CD
:1026C00064EF13F04CEF13F0000E2A6E400E2B6EE9
:1026D000050E2C6E400E2D6E020ED3EC0DF02AC0AE
:1026E00086F02BC087F000018E5112002D0E556E22
:1026F0005DC01EF0FD0E1E16D8A481EF13F083EF0F
:1027000013F0C5EF13F05DC01EF0D8901E323F0EDF
:102710001E161E50040D000EF3244E6E040EF420FF
:102720004F6E4EC04CF04FC04DF0040E4C184C6E26
:102730004D504D6E4EC0D9FF4FC0DAFFDF30E8324A
:102740000F0B0D0AD8A4A7EF13F0A9EF13F0C1EFF8
:1027500013F0300E016E040E026E20EE02F04E50A9
:10276000D9264F50DA22DECF03F0DDCF04F0000E81
:10277000066E080E056EFAEC15F0D7EC14F0D1EFEA
:1027800013F01FEC15F0D1EF13F05D50FD0B040AB0
:10279000D8A4CDEF13F0CFEF13F0D1EF13F0B2ECDC
:1027A00010F01200F0EF13F0B5EC11F029EF14F077
:1027B000B5EC11F0010EF4EC17F029EF14F0B5ECC4
:1027C00011F0020EF4EC17F029EF14F02DEC16F0D6
:1027D000E9EC18F029EF14F034EC11F029EF14F0C3
:1027E0000DC013F00EC014F01450000AD8B4FFEF5F
:1027F00013F07F0AD8B422EF14F029EF14F013502D
:10280000010AD8B4E6EF13F0030AD8B429EF14F0A4
:10281000010AD8B4ECEF13F0060AD8B429EF14F08B
:10282000770AD8B429EF14F0010AD8B4D4EF13F022
:10283000070AD8B4DFEF13F0010AD8B4D8EF13F0C9
:1028400029EF14F01350FF0AD8B429EF14F029EF40
:1028500014F01200000E0001916F000E906F020E36
:102860005A18D8A436EF14F038EF14F058EF14F0DB
:1028700020EE01F04C50D9264D50DA22080EDF6EC2
:1028800020EE02F04C50D9264D50DA22380EDE6E82
:10289000040EDD6E4CC0D9FF4DC0DAFF480EDF6E6E
:1028A0004CC0D9FF4DC0DAFF000EDB8E80EF14F074
:1028B00042500401365D43503759D8B062EF14F0EE
:1028C00064EF14F068EF14F036C442F037C443F0FC
:1028D0002AEC10F020EE02F04450D9264550DA22BE
:1028E000380EDE6E040EDD6E44C0D9FF45C0DAFF3F
:1028F000480EDF6E44C0D9FF45C0DAFF000EDB8E04
:102900001200066E000E076E040E086E0150026E75
:10291000036AD890023603360650046E056AD890D2
:1029200004360536D8900436053602500426035086
:102930000522D89004360536D89004360536045062
:1029400007260550082207C0D9FF08C0DAFFDF9E1E
:102950000150D8A4AEEF14F0B0EF14F0BEEF14F0B5
:102960000650020D6A0EF324D96E000EF420DA6EC2
:1029700007C0DEFF08C0DDFFCAEF14F00650020DED
:10298000440EF324D96E000EF420DA6E07C0DEFF89
:1029900008C0DDFF07C0D9FF08C0DAFFDF9C20EECA
:1029A00004F00750D9260850DA22DF8C1200000EFE
:1029B0005B6E000E546E000E0001916F000E906F62
:1029C000000E566E000E5A6E44C0D9FF45C0DAFFA5
:1029D0007F0EDF16040E4418446E4550456E44C009
:1029E000D9FF45C0DAFF7F0EDF16040E4418446E8F
:1029F0004550456E4CC0D9FF4DC0DAFF7F0EDF1643
:102A0000000E416E000E436E000E426E000E396ED7
:102A1000000E3B6E000E3A6E11EC0FF0000E0E6EC3
:102A2000030E0D6E000E0F6E000E106E000E126E75
:102A3000000E116ED2EC13F090EC0CF01200020EAE
:102A40005A18D8A426EF15F028EF15F02CEF15F042
:102A500032EC0DF058EF15F0000E5A6E5650D8A417
:102A600034EF15F036EF15F056EF15F020EE01F0CB
:102A70004C50D9264D50DA22080EDF6E20EE02F0BF
:102A80004C50D9264D50DA22300EDE6E040EDD6E2B
:102A90004CC0D9FF4DC0DAFF0C0EDF6E4CC0D9FF21
:102AA0004DC0DAFF000EDB8E58EF15F0000E566EAB
:102AB0001200A09A5150D8B460EF15F062EF15F0F3
:102AC00065EF15F0A08A90EF15F0000E2E6E2AC06B
:102AD0002CF02BC02DF02E2A2E28D8A472EF15F042
:102AE00074EF15F076EF15F084EF15F02CC0D9FFD8
:102AF0002DC0DAFF2C4A2D2ADF50D8A482EF15F022
:102B000084EF15F06BEF15F02AC07BF02BC07CF042
:102B10002EC050F0000E00018D6F010E516EA08A84
:102B200012002C6EADEF15F081A899EF15F09CEF17
:102B300015F0010E9DEF15F0000EC6EF15F081AAFD
:102B4000A4EF15F0A7EF15F0010EA8EF15F0000E99
:102B5000C6EF15F0000EC6EF15F02C502A6E2B6A4A
:102B60002B50000AD8B4B7EF15F0AAEF15F02A5091
:102B7000000AD8B4AAEF15F0010AD8B494EF15F002
:102B8000030AD8B49FEF15F0AAEF15F012002CC07D
:102B900033F02DC034F02AC031F02BC032F0ECEF0E
:102BA00015F033C0F6FF34C0F7FFF86A070EF7647C
:102BB00003D00800F55005D0F6CFE1FFF7CFE2FFD4
:102BC000E750306E334A342A31C0D9FF32C0DAFFC1
:102BD00030C0DFFF314A322A2E06D8A02F062E2819
:102BE00006E12F28D8A4F7EF15F0F9EF15F0D1EF93
:102BF00015F0120003C009F004C00AF001C007F08C
:102C000002C008F01FEF16F009C0F6FF0AC0F7FF78
:102C1000F86A070EF76403D00800F55005D0F6CF28
:102C2000E1FFF7CFE2FFE7500B6E094A0A2A07C01F
:102C3000D9FF08C0DAFF0BC0DFFF074A082A0506E4
:102C4000D8A00606052806E10628D8A42AEF16F023
:102C50002CEF16F004EF16F01200000E0001DA6FF0
:102C60004B0EDB6F000EDC6F000EDD6F000EDE6FB3
:102C7000000EDF6F080EE06F000E8E6F1A0E096EE9
:102C8000010EA9EC17F01E0E096E020EA9EC17F04A
:102C9000000E016E400E026E050E036E400E046EB5
:102CA000020E72EC0EF001C086F002C087F0000E3A
:102CB0000001846F000E856F000E516E12002C6EA5
:102CC0006EEF16F095908FEF16F095928FEF16F04D
:102CD00095948FEF16F095968FEF16F02C502A6E84
:102CE0002B6A2B50000AD8B478EF16F08FEF16F04D
:102CF0002A50000AD8B48FEF16F0010AD8B462EF58
:102D000016F0030AD8B465EF16F0010AD8B468EFDC
:102D100016F0070AD8B46BEF16F08FEF16F012001A
:102D2000036E9FEF16F09590C0EF16F09592C0EFEE
:102D300016F09594C0EF16F09596C0EF16F003507C
:102D4000016E026A0250000AD8B4A9EF16F0C0EF73
:102D500016F00150000AD8B4C0EF16F0010AD8B43A
:102D600093EF16F0030AD8B496EF16F0010AD8B420
:102D700099EF16F0070AD8B49CEF16F0C0EF16F0E2
:102D80001200036ED0EF16F08C80F1EF16F08C82FB
:102D9000F1EF16F08C84F1EF16F08C86F1EF16F05F
:102DA0000350016E026A0250000AD8B4DAEF16F03E
:102DB000F1EF16F00150000AD8B4F1EF16F0010A55
:102DC000D8B4C4EF16F0030AD8B4C7EF16F0010A5E
:102DD000D8B4CAEF16F0070AD8B4CDEF16F0F1EF69
:102DE00016F01200036E01EF17F08C9022EF17F02F
:102DF0008C9222EF17F08C9422EF17F08C9622EF32
:102E000017F00350016E026A0250000AD8B40BEFAB
:102E100017F022EF17F00150000AD8B422EF17F094
:102E2000010AD8B4F5EF16F0030AD8B4F8EF16F09B
:102E3000010AD8B4FBEF16F0070AD8B4FEEF16F07B
:102E400022EF17F0120070A028EF17F02AEF17F00A
:102E500051EF17F04EC0D9FF4FC0DAFF800EDE18D9
:102E6000D8A435EF17F037EF17F050EF17F044C044
:102E7000D9FF45C0DAFF840EDE18D8A442EF17F060
:102E800044EF17F050EF17F04EC0D9FF4FC0DAFFF4
:102E90000C0EDF6E4EC0D9FF4FC0DAFF000EDB8E86
:102EA0007090689A12000600E1CF20F0E2CF21F086
:102EB000D9CF22F0DACF23F0F3CF24F0F4CF25F0EE
:102EC000F6CF26F0F7CF27F0F8CF28F0F5CF29F08E
:102ED0003FEC07F029C0F5FF28C0F8FF27C0F7FF37
:102EE00026C0F6FF25C0F4FF24C0F3FF23C0DAFF9D
:102EF00022C0D9FF21C0E2FF20C0E1FF5F92110094
:102F0000100EF66E320EF76E000EF86E00EEE3F065
:102F100010EE13F00900F5CFEEFFE550E150FAE1B5
:102F200001EE00F0400EEE6AE806FDE100EE60F012
:102F3000830EEE6AE806FDE100EE36F0290EEE6A39
:102F4000E806FDE15F905F92000EF86E0001FBEF76
:102F500018F00C6E09A4AFEF17F0B1EF17F0B6EF51
:102F600017F0000E016E0C5081EC14F009A2BBEFBB
:102F700017F0BDEF17F0C2EF17F0010E016E0C5005
:102F800081EC14F0700E0C240A6E0B6A0F0E0B22EB
:102F90000AC0D9FF0BC0DAFF09C0DFFF12002F6E95
:102FA000DAEF17F0010E5FEC16F0010E3CEC18F0B2
:102FB000F3EF17F02F502D6E2E6A2E50000AD8B462
:102FC000E4EF17F0F3EF17F02D50000AD8B4D2EF6A
:102FD00017F0010AD8B4F3EF17F0030AD8B4F3EFEF
:102FE00017F0F3EF17F01200066EFFEF17F0010E67
:102FF00090EC16F0010E5FEC18F018EF18F0065088
:10300000046E056A0550000AD8B409EF18F018EFED
:1030100018F00450000AD8B4F7EF17F0010AD8B43A
:1030200018EF18F0030AD8B418EF18F018EF18F0DA
:1030300012005C50D8A41FEF18F021EF18F03BEFFE
:1030400018F0000E6D6E000E696E160E6F6E9F0EFC
:103050006B6E7B0E696ED08EA28AA08AF28E32EFE2
:1030600018F06D866DA637EF18F039EF18F031EFD4
:1030700018F0010E5C6E12002C6E45EF18F093886C
:103080005EEF18F0938A5EEF18F02C502A6E2B6AD0
:103090002B50000AD8B44FEF18F05EEF18F02A500A
:1030A000000AD8B45EEF18F0010AD8B43FEF18F068
:1030B000030AD8B442EF18F05EEF18F01200036E66
:1030C00068EF18F0938881EF18F0938A81EF18F079
:1030D0000350016E026A0250000AD8B472EF18F071
:1030E00081EF18F00150000AD8B481EF18F0010AFE
:1030F000D8B462EF18F0030AD8B465EF18F081EF86
:1031000018F01200000E586E000E0E6E740E0D6E4A
:10311000000E0F6E000E106E000E126E000E116E7D
:10312000D2EC13F06D92699497EF18F0689468B43C
:103130009CEF18F09EEF18F096EF18F0000E0001CB
:103140008F6F1200010E00017427000E7523762385
:1031500077235850D8A4AFEF18F0B1EF18F0BBEFB9
:1031600018F08F2B8F51D8A4B8EF18F0BAEF18F0E1
:10317000BBEF18F08F691200698468986D82010EA8
:10318000586E000E00018F6F000E0E6E750E0D6EE4
:10319000000E0F6E000E106E000E126E000E116EFD
:1031A000D2EC13F01200A09A5150D8A4DAEF18F024
:1031B000DCEF18F0E7EF18F02AC07BF02BC07CF0B2
:1031C0002CC050F0010E00018D6F010E516EA08ACF
:1031D0001200000E0001DE6F080EE06F000EDF6FC0
:1031E000800EDA6F250EDB6F000EDC6F000EDD6FD8
:1031F000000E8B6F1200000ECFEC17F045EC0BF0B9
:1032000019EC18F013EC06F002EF19F007EF00F0DC
:1032100002427574746F6E20707265737365642EEC
:033220000D0A0094
:020000040020DA
:08000000FFFFFFFFFFFFFFFF00
:020000040030CA
:0E000000210E3F1EFF0181FF0FC00FE00F40D9
:00000001FF
