:0400000007EF00F016
:0A0008005F826BED16F098EF16F022
:1008000000C60880084C08090809024300020100DC
:10081000C032090400000102020100052400100199
:100820000424020205240600010524010001070535
:1008300081030A000209040100020A000000070502
:10084000020240000007058202400000340343001A
:10085000440043002000520053002D0032003300BA
:100860003200200045006D0075006C0061007400CE
:1008700069006F006E002000440065006D006F008D
:1008800034034D006900630072006F00630068006C
:1008900069007000200054006500630068006E006D
:1008A0006F006C006F0067007900200049006E0047
:1008B00063002E001201000202000008D8040A00A2
:0B08C000000101020001040309040014
:1008CC0004013205D8A46DEF04F06FEF04F089EF4A
:1008DC0004F030511F0B0009D8A477EF04F079EF26
:1008EC0004F089EF04F0418E030E3119D8A481EF86
:1008FC0004F083EF04F087EF04F0010E596E89EFDA
:10090C0004F0000E596E3251D8A48FEF04F091EF21
:10091C0004F00FEF06F030511F0B020AD8A499EF28
:10092C0004F09BEF04F00FEF06F034510F0B0009AD
:10093C00D8B4A3EF04F0A5EF04F00FEF06F0345198
:10094C000F0B156E030E1560AEEF04F0B0EF04F054
:10095C000FEF06F0200E5C18D8A4B7EF04F0B9EF37
:10096C0004F00FEF06F0418E34BFBFEF04F0C1EF7F
:10097C0004F0DEEF04F034510F0B156E1550020D20
:10098C006A0EF324D96E000EF420DA6EDECF1AF064
:10099C00DDCF1BF034510F0B156E166A7E0E15242D
:1009AC00D96E000E1620DA6EDF50196EF9EF04F0D6
:1009BC0034510F0B156E1550020D440EF324D96EE5
:1009CC00000EF420DA6EDECF1AF0DDCF1BF03451BE
:1009DC000F0B156E166A810E1524D96E000E16209B
:1009EC00DA6EDF50196E19B0FEEF04F000EF05F06F
:1009FC0008EF05F0FB0E1A141A6EFF0E1B141B6E7B
:100A0C000DEF05F0040E1A101A6E1B501B6E34BF3E
:100A1C0012EF05F014EF05F025EF05F034510F0B34
:100A2C00156E1550020D6A0EF324D96E000EF420CB
:100A3C00DA6E1AC0DEFF1BC0DDFF34EF05F0345157
:100A4C000F0B156E1550020D440EF324D96E000ECB
:100A5C00F420DA6E1AC0DEFF1BC0DDFF030E311965
:100A6C00D8A43BEF05F03DEF05F077EF05F01AC089
:100A7C00D9FF1BC0DAFFDFAE46EF05F048EF05F0FB
:100A8C0069EF05F034BF4DEF05F04FEF05F05DEF6A
:100A9C0005F034510F0B156E166A7E0E1524D96EA7
:100AAC00000E1620DA6E0001DF8269EF05F034517A
:100ABC000F0B156E166A810E1524D96E000E1620BA
:100ACC00DA6E0001DF821AC0D9FF1BC0DAFF000EFC
:100ADC00DB841AC0D9FF1BC0DAFF000EDB8E0FEFD0
:100AEC0006F0040E1A181A6E1B501B6E1AC0D9FF92
:100AFC001BC0DAFFDFAE85EF05F087EF05F0A3EF43
:100B0C0005F01AC0D9FF1BC0DAFF7F0EDF161AC022
:100B1C00D9FF1BC0DAFF000EDB8C000E0E6E050E2B
:100B2C000D6E1AC00FF01BC010F0000E126E020EEC
:100B3C00116E50EC13F0A9EF05F01AC0D9FF1BC0D1
:100B4C00DAFF000EDB8C040E1A181A6E1B501B6E8B
:100B5C0019B2B3EF05F0B5EF05F0C0EF05F01AC010
:100B6C00D9FF1BC0DAFFDFAEBEEF05F0C0EF05F01A
:100B7C00F8EF05F0040134BFC6EF05F0C8EF05F03F
:100B8C00D6EF05F034510F0B156E166A7E0E152438
:100B9C00D96E000E1620DA6E0001DF92E2EF05F03E
:100BAC0034510F0B156E166A810E1524D96E000E7A
:100BBC001620DA6E0001DF921AC0D9FF1BC0DAFFD3
:100BCC003B0EDF16000E0E6E050E0D6E1AC00FF0EA
:100BDC001BC010F0000E126E020E116E50EC13F0D2
:100BEC00FEEF05F01AC0D9FF1BC0DAFF3B0EDF1673
:100BFC00040134510F0B156E166A700E1524176E06
:100C0C000F0E1620186E17C0D9FF18C0DAFFFE0E93
:100C1C00DF1612005C04D8A416EF06F018EF06F0ED
:100C2C0025EF06F06DBA1DEF06F01FEF06F025EF6D
:100C3C0006F0000E686E69806988020E5C6E68A40E
:100C4C002AEF06F02CEF06F036EF06F069A431EF30
:100C5C0006F033EF06F036EF06F06894C2EC17F0AE
:100C6C006DA23BEF06F03DEF06F040EF06F0A19AC7
:100C7C0023EF07F068A045EF06F047EF06F054EFBE
:100C8C0006F069A04CEF06F04EEF06F054EF06F0BC
:100C9C0069EC0BF0A08A040E5C6E689068A859EFA2
:100CAC0006F05BEF06F064EF06F069A860EF06F063
:100CBC0062EF06F064EF06F0FCEC17F068AC69EF3D
:100CCC0006F06BEF06F096EF06F069AC70EF06F0ED
:100CDC0072EF06F080EF06F0000E0E6E730E0D6EC6
:100CEC00000E0F6E000E106E000E126E010E116EC5
:100CFC0050EC13F0689CE2EC17F05550D8B489EF27
:100D0C0006F08BEF06F08CEF06F055065550D8A484
:100D1C0092EF06F094EF06F096EF06F0ADEC11F0C2
:100D2C0068AA9BEF06F09DEF06F0A6EF06F069AA05
:100D3C00A2EF06F0A4EF06F0A6EF06F03BEC16F0DF
:100D4C0068A2ABEF06F0ADEF06F0C3EF06F069A2B8
:100D5C00B2EF06F0B4EF06F0C3EF06F07F0E0E6EA6
:100D6C000D68000E0F6E000E106E000E126E010E4E
:100D7C00116E50EC13F0000E6A6E040E5C60C9EF3D
:100D8C0006F0CBEF06F0CEEF06F0A19A23EF07F0BA
:100D9C0069A6D3EF06F0D5EF06F022EF07F0000EB0
:100DAC001F6E68A6DCEF06F0DEEF06F022EF07F010
:100DBC006CCF5DF05D30E832E8320F0B576E689601
:100DCC005DB4EBEF06F0EDEF06F0F7EF06F07E0EFC
:100DDC005724D96EDA6A000EDA220001DF70FFEFB9
:100DEC0006F0810E5724D96EDA6A000EDA22000161
:100DFC00DF705750D8A405EF07F007EF07F00BEFA3
:100E0C0007F0F4EC12F019EF07F0000E0E6E720EF4
:100E1C000D6E5D0E0F6E000E106E000E126E000E3B
:100E2C00116E50EC13F01F2A030E1F6420EF07F015
:100E3C0022EF07F0D7EF06F0A19A1200A09A00015A
:100E4C0084518511D8B42DEF07F02FEF07F03DEF4B
:100E5C0007F084C0D9FF85C0DAFFDFAE38EF07F0AA
:100E6C003AEF07F03DEF07F0A08AEFEF07F0030E23
:100E7C005118D8A444EF07F046EF07F048EF07F0FD
:100E8C00000E516E5150D8A44EEF07F050EF07F002
:100E9C0053EF07F0A08AEFEF07F0020E5118D8A419
:100EAC005AEF07F05CEF07F06FEF07F0010E2A6EB8
:100EBC00000E2B6E000E2C6E000E2D6E020E51ECE1
:100ECC000DF02AC084F02BC085F0030E516EEEEFAE
:100EDC0007F05104D8A475EF07F077EF07F0EEEFA9
:100EEC0007F0400E50647DEF07F07FEF07F083EFC3
:100EFC0007F0400EF56F85EF07F050C0F5F0F55197
:100F0C00505C506E000E786F050E796FF5C0F4F0E2
:100F1C008C51D8A494EF07F096EF07F0C0EF07F0D0
:100F2C00A7EF07F07BC0D9FF7CC0DAFF78C0E1FFE8
:100F3C0079C0E2FFDFCFE7FF784B792B7B4B7C2B23
:100F4C00F407F451D8A4ADEF07F0AFEF07F098EF2A
:100F5C0007F0C8EF07F07BC0D9FF7CC0DAFF78C080
:100F6C00E1FF79C0E2FFDFCFE7FF784B792B7B4BBA
:100F7C007C2BF407F451D8A4C6EF07F0C8EF07F0A8
:100F8C00B1EF07F05050D8A4CEEF07F0D0EF07F038
:100F9C00DFEF07F0400EF519D8A4D7EF07F0D9EF23
:100FAC0007F0DDEF07F0020E516EDFEF07F0030ED6
:100FBC00516E010E2A6E000E2B6E050E2C6EF5C0B6
:100FCC002DF0020E51EC0DF02AC084F02BC085F0F0
:100FDC00A08A12002AC034F02BC035F02E502F10EE
:100FEC00D8A4FBEF07F0FDEF07F0FFEF07F0AAEF37
:100FFC0008F034C0D9FF35C0DAFF2CC0DFFF2E500B
:10100C003424306E2F503520316EFF0E3024D96EC3
:10101C00FF0E3120DA6E2CC0DFFF2F5007E1030EDC
:10102C002E5CD8B01CEF08F01EEF08F020EF08F093
:10103C00AAEF08F020EE01F03450D9263550DA2210
:10104C002CC0DFFF20EE02F03450D9263550DA22C6
:10105C002CC0DFFF2E503424306E2F503520316ED3
:10106C00FE0E3024D96EFF0E3120DA6E2CC0DFFF5D
:10107C002E503424306E2F503520316EFD0E30241E
:10108C00D96EFF0E3120DA6E2CC0DFFF2F5007E136
:10109C00070E2E5CD8B055EF08F057EF08F059EF5B
:1010AC0008F0AAEF08F020EE03F03450D9263550A2
:1010BC00DA222CC0DFFF2E503424306E2F50352016
:1010CC00316EFC0E3024D96EFF0E3120DA6E2CC03E
:1010DC00DFFF2F5007E1090E2E5CD8B078EF08F037
:1010EC007AEF08F07CEF08F0AAEF08F034C030F08B
:1010FC0035C031F0301E311E304A312A030E301407
:10110C00326E336A325034263350352232502E5ED2
:10111C0033502F5AFC0E2E16FF0E2F16A1EF08F08F
:10112C0034C0D9FF35C0DAFF2CC0DFFF2E06D8A0A3
:10113C002F06344A352A2E502F10D8A4A8EF08F0C9
:10114C00AAEF08F096EF08F0120001C00BF002C0F5
:10115C000CF005500610D8A4B6EF08F0B8EF08F064
:10116C00BAEF08F065EF09F00BC0D9FF0CC0DAFF3D
:10117C0003C0DFFF05500B24076E06500C20086ED1
:10118C00FF0E0724D96EFF0E0820DA6E03C0DFFFB6
:10119C00065007E1030E055CD8B0D7EF08F0D9EF85
:1011AC0008F0DBEF08F065EF09F020EE01F00B50D2
:1011BC00D9260C50DA2203C0DFFF20EE02F00B50D0
:1011CC00D9260C50DA2203C0DFFF05500B24076E22
:1011DC0006500C20086EFE0E0724D96EFF0E082058
:1011EC00DA6E03C0DFFF05500B24076E06500C208F
:1011FC00086EFD0E0724D96EFF0E0820DA6E03C0B0
:10120C00DFFF065007E1070E055CD8B010EF09F0C0
:10121C0012EF09F014EF09F065EF09F020EE03F07E
:10122C000B50D9260C50DA2203C0DFFF05500B24DB
:10123C00076E06500C20086EFC0E0724D96EFF0EAC
:10124C000820DA6E03C0DFFF065007E1090E055CCB
:10125C00D8B033EF09F035EF09F037EF09F065EF4F
:10126C0009F00BC007F00CC008F0071E081E074A57
:10127C00082A030E0714096E0A6A09500B260A5035
:10128C000C220950055E0A50065AFC0E0516FF0E7C
:10129C0006165CEF09F00BC0D9FF0CC0DAFF03C0D7
:1012AC00DFFF0506D8A006060B4A0C2A05500610CF
:1012BC00D8A463EF09F065EF09F051EF09F01200C3
:1012CC00800E04013019D8A46EEF09F070EF09F00C
:1012DC0015EF0AF0C00E416EFCEF09F0B40E3E6E35
:1012EC00080E3F6E000E436E120E426E15EF0AF0A2
:1012FC003251D8A484EF09F086EF09F0C4EF09F05D
:10130C003251020D070EF324F66E080EF420F76E20
:10131C000900F5CF3EF00A00F5CF3FF0020E3E2457
:10132C00016E000E3F20026E01C0F6FF02C0F7FFF7
:10133C00F86A070EF76403D00800F55005D0F6CF15
:10134C00E1FFF7CFE2FFE750426E030E3E24016E41
:10135C00000E3F20026E01C0F6FF02C0F7FFF86AD4
:10136C00070EF76403D00800F55005D0F6CFE1FF67
:10137C00F7CFE2FFE750436E15EF0AF0000E416E17
:10138C0015EF0AF0030E3261CEEF09F0D0EF09F041
:10139C00F4EF09F03251020D010EF324F66E080E33
:1013AC00F420F76E0900F5CF3EF00A00F5CF3FF0C0
:1013BC003EC0F6FF3FC0F7FFF86A070EF76403D094
:1013CC000800F55005D0F6CFE1FFF7CFE2FFE7506C
:1013DC00016E0150426E436A15EF0AF0000E416E29
:1013EC0015EF0AF0000E416E15EF0AF03351016E45
:1013FC00026A0250000AD8B406EF0AF0F8EF09F0BE
:10140C000150010AD8B474EF09F0030AD8B47EEF86
:10141C0009F0010AD8B4C8EF09F0F8EF09F012008E
:10142C00200E5C601CEF0AF01EEF0AF020EF0AF0B1
:10143C00C2EF0AF06DA225EF0AF027EF0AF029EFB0
:10144C000AF0C2EF0AF0010E0FEC15F0E806D8A472
:10145C0032EF0AF034EF0AF050EF0AF000018A5133
:10146C00D8A43BEF0AF03DEF0AF053EF0AF05150CD
:10147C00D8A443EF0AF045EF0AF053EF0AF0E20E5E
:10148C002A6E000E2B6ED7EC14F0010E00018A6F41
:10149C0053EF0AF0000E00018A6F5150D8A459EF97
:1014AC000AF05BEF0AF0C0EF0AF0910EF46F000E39
:1014BC00F56F400EF66F98EC12F00001F96F000E0C
:1014CC00FA6FA7EF0AF0910EFA25D96EDA6A000EC0
:1014DC00DA22000EFA25E16EE26A010EE222DFCF7B
:1014EC00E7FFA6EF0AF0000EFA25D96EDA6A010EB4
:1014FC00DA22910EFA25E16EE26A000EE222E75042
:10150C00F76FF729DF6EA6EF0AF0910EFA25D96E68
:10151C00DA6A000EDA22DF50F76FF86BF851000A26
:10152C00D8B49BEF0AF079EF0AF0F7510A0AD8B455
:10153C0069EF0AF0070AD8B469EF0AF079EF0AF0FC
:10154C00FA2BF951FA5DD8A0AEEF0AF0B0EF0AF021
:10155C008BEF0AF0F951D8B4B6EF0AF0B8EF0AF0F5
:10156C00C0EF0AF0000E2A6E010E2B6EF9C02CF0A3
:10157C0013EC18F024EC07F01200A09A000E6A6E1F
:10158C00000E686E000E706E710E2A6E0F0E2B6EB2
:10159C00000E2D6E000E2C6E000E2F6E020E2E6E97
:1015AC00F0EC07F0160E6F6E9F0E6B6E7B0E696E75
:1015BC00000E0001F46FF451040D000EF324D96EEB
:1015CC00040EF420DA6EDE6ADE6ADE6ADD6AF42B63
:1015DC000B0EF465F4EF0AF0F6EF0AF0E1EF0AF007
:1015EC006D8C000E6E6E6D986D9C6896000E416E43
:1015FC00000E396E000E3B6E000E3A6E68B609EFA7
:10160C000BF00BEF0BF0FBEF0AF0010E536E010E1B
:10161C00526E000E0001906F000E8F6F000E586E10
:10162C00000EF46FF451020D440EF324D96E000E2B
:10163C00F420DA6E000EDE6E000EDD6EF451020D3B
:10164C006A0EF324D96E000EF420DA6E000EDE6EF4
:10165C00000EDD6E810EF425D96EDA6A000EDA22E8
:10166C00000EDF6E7E0EF425D96EDA6A000EDA22D9
:10167C00000EDF6EF42B020EF46547EF0BF049EF12
:10168C000BF018EF0BF0080E446E040E456E160EA0
:10169C00706E040E0401036F300E026F080E016FA2
:1016AC00040E006F008F000E5E6E000E0001746F52
:1016BC00000E756F000E766F000E776F000E8E6F3A
:1016CC00000E5C6E1200A09A000E6A6E000E686E20
:1016DC00000E706E710E016E0F0E026E000E046E17
:1016EC00000E036E000E066E020E056EABEC08F0DB
:1016FC00160E6F6E9F0E6B6E7B0E696E000E0D6E6E
:10170C000D50040D000EF324D96E040EF420DA6E85
:10171C00DE6ADE6ADE6ADD6A0D2A0B0E0D6499EF55
:10172C000BF09BEF0BF086EF0BF06D8C000E6E6EDA
:10173C006D986D9C6896000E416E000E396E000E11
:10174C003B6E000E3A6E68B6AEEF0BF0B0EF0BF0DE
:10175C00A0EF0BF0010E536E010E526E000E000145
:10176C00906F000E8F6F000E586E000E0D6E0D50A8
:10177C00020D440EF324D96E000EF420DA6E000E26
:10178C00DE6E000EDD6E0D50020D6A0EF324D96E66
:10179C00000EF420DA6E000EDE6E000EDD6E810E91
:1017AC000D24D96EDA6A000EDA22000EDF6E7E0E80
:1017BC000D24D96EDA6A000EDA22000EDF6E0D2AC5
:1017CC00020E0D64ECEF0BF0EEEF0BF0BDEF0BF037
:1017DC00080E446E040E456E160E706E040E040157
:1017EC00036F300E026F080E016F040E006F008F36
:1017FC00000E5E6E000E0001746F000E756F000E11
:10180C00766F000E776F000E8E6F000E5C6E1200FE
:10181C006D9841BE14EF0CF016EF0CF05CEF0CF071
:10182C0039AE1BEF0CF01DEF0CF030EF0CF0020E8C
:10183C005A6E00018F51D8A426EF0CF028EF0CF053
:10184C002AEF0CF0A8EC13F0000E526E000E536E43
:10185C00AFEF0CF020EE01F04C50D9264D50DA22AF
:10186C00080EDF6E20EE02F04C50D9264D50DA22D5
:10187C00300EDE6E040EDD6E4CC0D9FF4DC0DAFFAB
:10188C000C0EDF6E4CC0D9FF4DC0DAFF000EDB8EA4
:10189C0044C0D9FF45C0DAFF040EDF6E44C0D9FF47
:1018AC0045C0DAFF000EDB8EAFEF0CF0040130AF59
:1018BC0062EF0CF064EF0CF081EF0CF0010E5A6E3D
:1018CC0000019051D8A46DEF0CF06FEF0CF071EF9C
:1018DC000CF0A8EC13F0000E526E000E536E545028
:1018EC00D8A47BEF0CF07DEF0CF0AFEF0CF0ADEC6F
:1018FC0011F0AFEF0CF0020E5A6E20EE01F04C50CE
:10190C00D9264D50DA22080EDF6E20EE02F04C5034
:10191C00D9264D50DA22300EDE6E040EDD6E4CC030
:10192C00D9FF4DC0DAFF040EDF6E4CC0D9FF4DC09D
:10193C00DAFF000EDB8E000E526E000E536E54500A
:10194C00D8A4ABEF0CF0ADEF0CF0AFEF0CF07DEFDB
:10195C000CF0120020EE01F04E50D9264F50DA2236
:10196C00DF50026E02503A5C000E3B58D8B0C1EF0B
:10197C000CF0C3EF0CF0C5EF0CF03AC002F00250C3
:10198C003A5E000E3B5A000E016EDCEF0CF0380E86
:10199C000124D96EDA6A040EDA2236C0E1FF37C0B0
:1019AC00E2FFDFCFE7FF364A372A012A0250015CFB
:1019BC00D8A0E3EF0CF0E5EF0CF0CDEF0CF03A50C3
:1019CC003B10D8B4ECEF0CF0EEEF0CF027EF0DF071
:1019DC0020EE01F04C50D9264D50DA22080EDF6E65
:1019EC0020EE02F04C50D9264D50DA22380EDE6E25
:1019FC00040EDD6E4EC0D9FF4FC0DAFFDFBC09EF1D
:101A0C000DF00BEF0DF019EF0DF04CC0D9FF4DC0E0
:101A1C00DAFF480EDF6E4CC0D9FF4DC0DAFF000E66
:101A2C00DB8E50EF0DF04CC0D9FF4DC0DAFF080E25
:101A3C00DF6E4CC0D9FF4DC0DAFF000EDB8E50EFCD
:101A4C000DF020EE01F04C50D9264D50DA22080E44
:101A5C00DF6E20EE02F04C50D9264D50DA22300EBB
:101A6C00DE6E040EDD6E4CC0D9FF4DC0DAFF040EE5
:101A7C00DF6E4CC0D9FF4DC0DAFF000EDB8E399EF5
:101A8C005450D8A44CEF0DF04EEF0DF050EF0DF07C
:101A9C00ADEC11F01200326E2A50D8B458EF0DF0A4
:101AAC005AEF0DF068EF0DF03250020D440EF32496
:101ABC00D96E000EF420DA6EDECF33F0DDCF34F0C9
:101ACC0074EF0DF03250020D6A0EF324D96E000E35
:101ADC00F420DA6EDECF33F0DDCF34F03350341037
:101AEC00D8A47BEF0DF07DEF0DF083EF0DF0000E21
:101AFC002A6E000E2B6EEFEF0DF020EE02F033503D
:101B0C00D9263450DA222BC0DEFF2CC0DDFF20EEAC
:101B1C0001F03350D9263450DA222DC0DFFF33C008
:101B2C00D9FF34C0DAFF400EDF1633C0D9FF34C002
:101B3C00DAFF000EDB8633C0D9FF34C0DAFF000EAB
:101B4C00DB8E2A50D8B4ADEF0DF0AFEF0DF0CEEF29
:101B5C000DF03250020D440EF324D96E000EF42019
:101B6C00DA6EDECF2EF0DDCF2FF0040E2E18306E95
:101B7C002F50316E3250020D440EF324D96E000EEC
:101B8C00F420DA6E30C0DEFF31C0DDFFEBEF0DF07C
:101B9C003250020D6A0EF324D96E000EF420DA6E68
:101BAC00DECF2EF0DDCF2FF0040E2E18306E2F501E
:101BBC00316E3250020D6A0EF324D96E000EF420F1
:101BCC00DA6E30C0DEFF31C0DDFF33C02AF034C026
:101BDC002BF01200096E0150D8B4F7EF0DF0F9EFAD
:101BEC000DF007EF0EF00950020D440EF324D96EE0
:101BFC00000EF420DA6EDECF0AF0DDCF0BF013EF1F
:101C0C000EF00950020D6A0EF324D96E000EF4206A
:101C1C00DA6EDECF0AF0DDCF0BF00A500B10D8A431
:101C2C001AEF0EF01CEF0EF022EF0EF0000E016E0C
:101C3C00000E026E8EEF0EF020EE02F00A50D92646
:101C4C000B50DA2202C0DEFF03C0DDFF20EE01F0F4
:101C5C000A50D9260B50DA2204C0DFFF0AC0D9FF84
:101C6C000BC0DAFF400EDF160AC0D9FF0BC0DAFF3B
:101C7C00000EDB860AC0D9FF0BC0DAFF000EDB8E2C
:101C8C000150D8B44CEF0EF04EEF0EF06DEF0EF09D
:101C9C000950020D440EF324D96E000EF420DA6EB6
:101CAC00DECF05F0DDCF06F0040E0518076E0650EA
:101CBC00086E0950020D440EF324D96E000EF42068
:101CCC00DA6E07C0DEFF08C0DDFF8AEF0EF00950A8
:101CDC00020D6A0EF324D96E000EF420DA6EDECFFC
:101CEC0005F0DDCF06F0040E0518076E0650086EE1
:101CFC000950020D6A0EF324D96E000EF420DA6E30
:101D0C0007C0DEFF08C0DDFF0AC001F00BC002F007
:101D1C00120004013039E832030B0009D8B499EFF2
:101D2C000EF09BEF0EF0E3EF0EF01CEF0FF0418E78
:101D3C00080E5C6E1CEF0FF066EC09F01CEF0FF058
:101D4C0025EC12F01CEF0FF05E0E3E6E000E3F6E97
:101D5C004180010E426E418E1CEF0FF01DEC0FF016
:101D6C001CEF0FF066EC04F01CEF0FF0E00E3425C6
:101D7C003E6E3F6A000E3F224180010E426E418E44
:101D8C001CEF0FF0418EE00E3425D96EDA6A000E8E
:101D9C00DA2232C4DFFF1CEF0FF0000E0E6E020EC3
:101DAC000D6E000E0F6E000E106E000E126E000EF9
:101DBC00116E50EC13F01CEF0FF031511C6E1D6ABC
:101DCC001D50000AD8B4EDEF0EF01CEF0FF01C50B4
:101DDC00000AD8B4B4EF0EF0010AD8B4B8EF0EF084
:101DEC00020AD8B4B8EF0EF0060AD8B49DEF0EF084
:101DFC00030AD8B4A2EF0EF0010AD8B4D3EF0EF058
:101E0C000F0AD8B4AAEF0EF0010AD8B4A6EF0EF060
:101E1C00030AD8B4BCEF0EF0010AD8B4C8EF0EF028
:101E2C00070AD8B41CEF0FF01CEF0FF01200000ED5
:101E3C000401386F000E396F7FEF0FF0418E59049B
:101E4C00D8A42BEF0FF02DEF0FF099EF0FF0388394
:101E5C0099EF0FF0418E99EF0FF0418E34510F0B2B
:101E6C000009D8B43CEF0FF03EEF0FF099EF0FF0F4
:101E7C0034BF43EF0FF045EF0FF056EF0FF0345136
:101E8C000F0B016E0150020D6A0EF324D96E000E79
:101E9C00F420DA6EDECF03F0DDCF04F065EF0FF047
:101EAC0034510F0B016E0150020D440EF324D96E08
:101EBC00000EF420DA6EDECF03F0DDCF04F003C0A9
:101ECC00D9FF04C0DAFFDFAE6EEF0FF070EF0FF04A
:101EDC0099EF0FF003C0D9FF04C0DAFFDFA479EF4C
:101EEC000FF07BEF0FF099EF0FF0010E386F99EFB9
:101EFC000FF030511F0B016E026A0250000AD8B469
:101F0C008AEF0FF099EF0FF00150000AD8B424EFCC
:101F1C000FF0010AD8B430EF0FF0030AD8B433EF46
:101F2C000FF099EF0FF041AE9EEF0FF0A0EF0FF016
:101F3C00A7EF0FF0380E3E6E040E3F6E4180020E7E
:101F4C00426E1200080E016E435007E1080E425C0F
:101F5C00D8B0B3EF0FF0B5EF0FF0CDEF0FF042C0EC
:101F6C0001F05B50D8A4BDEF0FF0BFEF0FF0C3EF43
:101F7C000FF0010E5B6ECDEF0FF05B04D8A4C9EF30
:101F8C000FF0CBEF0FF0CDEF0FF0020E5B6E0150A8
:101F9C00425E000E435A20EE01F04450D9264550C3
:101FAC00DA2201C0DFFF380E0001886F040E896F42
:101FBC0041B0E3EF0FF0E5EF0FF027EF10F002EF79
:101FCC0010F03EC0F6FF3FC0F7FFF86A88C0D9FF9B
:101FDC0089C0DAFF070EF76403D00800F55005D06E
:101FEC00F6CFE1FFF7CFE2FFE750DF6E3E4A3F2A24
:101FFC000001884B892B01060150D8A408EF10F082
:10200C000AEF10F0E7EF0FF02FEF10F03EC0F6FFE5
:10201C003FC0F7FFF86A88C0D9FF89C0DAFF070E06
:10202C00F76403D00800F55005D0F6CFE1FFF7CFE9
:10203C00E2FFE750DF6E3E4A3F2A0001884B892BB6
:10204C0001060150D8A42DEF10F02FEF10F00CEF7B
:10205C0010F0120044C0D9FF45C0DAFF000EDFBCFF
:10206C00010E026E040E4418446E4550456E080E67
:10207C005C18D8A444EF10F046EF10F058EF10F0B5
:10208C00040132517F0B6E6E6E50D8B450EF10F0CD
:10209C0052EF10F056EF10F0100E5C6E58EF10F07F
:1020AC00040E5C6E5A04D8A45EEF10F060EF10F0D2
:1020BC00A7EF10F020EE02F04450D9264550DA225A
:1020CC00380EDE6E040EDD6EA8EC0FF0020E5B18FF
:1020DC00D8A473EF10F075EF10F083EF10F044C03C
:1020EC00D9FF45C0DAFF040EDF6E44C0D9FF45C0EE
:1020FC00DAFF000EDB8EB1EF10F00250D8A489EF9E
:10210C0010F08BEF10F099EF10F044C0D9FF45C0E0
:10211C00DAFF480EDF6E44C0D9FF45C0DAFF000E6F
:10212C00DB8EB1EF10F044C0D9FF45C0DAFF080ECA
:10213C00DF6E44C0D9FF45C0DAFF000EDB8EB1EF75
:10214C0010F039AEACEF10F0AEEF10F0AFEF10F0C6
:10215C00399E000E5A6E1200040130511F0BE80616
:10216C00D8B4BBEF10F0BDEF10F0BFEF10F032EFB2
:10217C0011F03039E832030BE806D8B4C8EF10F090
:10218C00CAEF10F0CCEF10F032EF11F03451D8B49C
:10219C00D2EF10F0D4EF10F011EF11F03405D8B4E9
:1021AC00DAEF10F0DCEF10F011EF11F032EF11F06C
:1021BC00D10E3E6E000E3F6E000E436E080E426E48
:1021CC004180418E32EF11F0D10E3E6E000E3F6E0B
:1021DC00418E32EF11F036C43AF037C43BF0D90ED1
:1021EC00366E000E376E000E3C6E000E3D6E398E54
:1021FC0032EF11F0D90E3E6E000E3F6E000E436EA4
:10220C00070E426EC10E416E32EF11F032C48BF0EC
:10221C00418E32EF11F03151016E026A0250000A08
:10222C00D8B41BEF11F032EF11F00150000AD8B402
:10223C00DEEF10F0010AD8B4EAEF10F0210AD8B49E
:10224C00F1EF10F0010AD8B400EF11F0030AD8B482
:10225C000CEF11F032EF11F012006DA238EF11F00B
:10226C003AEF11F099EF11F0010E0AEC16F0ACEF09
:10227C0011F04A044B10D8A446EF11F048EF11F0BE
:10228C004DEF11F0010ED9EC15F0AAEF11F04B0E39
:10229C004A184B10D8A455EF11F057EF11F05CEF22
:1022AC0011F0010E0AEC16F0AAEF11F04B5009E1F7
:1022BC00970E4A5CD8A065EF11F067EF11F06DEF47
:1022CC0011F0000E4B6E000E4A6EAAEF11F0AAEF41
:1022DC0011F04A044B10D8A476EF11F078EF11F0FE
:1022EC007DEF11F0010ED9EC15F0AAEF11F0320EC2
:1022FC004A184B10D8A485EF11F087EF11F08CEF32
:10230C0011F0010E0AEC16F0AAEF11F0B70E4A5CB0
:10231C00030E4B58D8A095EF11F097EF11F0AAEFE0
:10232C0011F067EF11F05C50046E056A0550000A5D
:10233C00D8B4A3EF11F06FEF11F00450200AD8B409
:10234C003FEF11F06FEF11F04A4A4B2A1200535035
:10235C00D8A4B3EF11F0B5EF11F024EF12F0010E89
:10236C00536E5250D8A4BDEF11F0BFEF11F024EF13
:10237C0012F0010E526E020E5A18D8A4C8EF11F0CA
:10238C00CAEF11F0E0EF11F020EE01F04450D92625
:10239C004550DA22000EDF6E44C0D9FF45C0DAFF8B
:1023AC00480EDF6E44C0D9FF45C0DAFF000EDB8E4D
:1023BC0024EF12F05A04D8A4E6EF11F0E8EF11F074
:1023CC0024EF12F0000E566E20EE01F04E50D9267E
:1023DC004F50DA22080EDF6E20EE02F04E50D92656
:1023EC004F50DA22300EDE6E040EDD6E4EC0D9FF79
:1023FC004FC0DAFF040EDF6E4EC0D9FF4FC0DAFFBC
:10240C00000EDB8E010E566E20EE01F04C50D926DC
:10241C004D50DA22080EDF6E20EE02F04C50D92619
:10242C004D50DA22300EDE6E040EDD6E4CC0D9FF3C
:10243C004DC0DAFF800EDF6E24EF12F01200418ED9
:10244C00710E016E0F0E026E000E046E000E036E06
:10245C00000E066E020E056EABEC08F0000E016E5F
:10246C00040E026E000E046E000E036E000E066E5D
:10247C00300E056EABEC08F06D8C000E156E810EF7
:10248C001524D96EDA6A000EDA22000EDF6E7E0E8B
:10249C001524D96EDA6A000EDA22000EDF6E152AC8
:1024AC00020E15645CEF12F05EEF12F045EF12F0C5
:1024BC00E00E016E000E026E000E046E000E036E36
:1024CC00000E066E020E056EABEC08F06D9C080E4D
:1024DC00446E040E456E000E4E6E040E4F6E4EC0D2
:1024EC004CF04FC04DF032C45EF05E50D8A481EF7A
:1024FC0012F083EF12F087EF12F0100E5C6E97EF74
:10250C0012F0000E0E6E010E0D6E5E0E0F6E000EB2
:10251C00106E000E126E010E116E50EC13F0200EA8
:10252C005C6E1200000E00018D6F86518711D8B4BD
:10253C00A2EF12F0A4EF12F0AFEF12F086C0D9FFA9
:10254C0087C0DAFFDFBEADEF12F0AFEF12F0F1EFA4
:10255C0012F020EE01F08651D9268751DA22F6517D
:10256C00DE5CD8B0BCEF12F0BEEF12F0C6EF12F08A
:10257C0020EE01F08651D9268751DA22DF50F66F12
:10258C00000E8D6FD9EF12F0400E8D25D96EDA6AE0
:10259C00050EDA228D51F425E16E000EF521E26E66
:1025AC00DFCFE7FF8D2BF6518D5DD8A0E0EF12F059
:1025BC00E2EF12F0CAEF12F0000E2A6E400E2B6EF4
:1025CC00050E2C6E400E2D6E020E51EC0DF02AC035
:1025DC0086F02BC087F000018D5112002D0E556E28
:1025EC005DC01EF0FD0E1E16D8A4FFEF12F001EF19
:1025FC0013F043EF13F05DC01EF0D8901E323F0E67
:10260C001E161E50040D000EF3244E6E040EF42004
:10261C004F6E4EC04CF04FC04DF0040E4C184C6E2B
:10262C004D504D6E4EC0D9FF4FC0DAFFDF30E8324F
:10263C000F0B0D0AD8A425EF13F027EF13F03FEF83
:10264C0013F0300E016E040E026E20EE02F04E50AE
:10265C00D9264F50DA22DECF03F0DDCF04F0000E86
:10266C00066E080E056EC1EC16F055EC14F04FEF2B
:10267C0013F09DEC14F04FEF13F05D50FD0B040ABA
:10268C00D8A44BEF13F04DEF13F04FEF13F030ECE9
:10269C0010F012006EEF13F033EC11F0A7EF13F003
:1026AC0033EC11F0010E34EC17F0A7EF13F033EC10
:1026BC0011F0020E34EC17F0A7EF13F045EC15F007
:1026CC0029EC18F0A7EF13F0B2EC10F0A7EF13F011
:1026DC000DC013F00EC014F01450000AD8B47DEFE6
:1026EC0013F07F0AD8B4A0EF13F0A7EF13F0135038
:1026FC00010AD8B464EF13F0030AD8B4A7EF13F0AF
:10270C00010AD8B46AEF13F0060AD8B4A7EF13F095
:10271C00770AD8B4A7EF13F0010AD8B452EF13F02C
:10272C00070AD8B45DEF13F0010AD8B456EF13F0D2
:10273C00A7EF13F01350FF0AD8B4A7EF13F0A7EFCD
:10274C0013F01200000E0001906F000E8F6F020E3E
:10275C005A18D8A4B4EF13F0B6EF13F0D6EF13F069
:10276C0020EE01F04C50D9264D50DA22080EDF6EC7
:10277C0020EE02F04C50D9264D50DA22380EDE6E87
:10278C00040EDD6E4CC0D9FF4DC0DAFF480EDF6E73
:10279C004CC0D9FF4DC0DAFF000EDB8EFEEF13F0FC
:1027AC0042500401365D43503759D8B0E0EF13F076
:1027BC00E2EF13F0E6EF13F036C442F037C443F007
:1027CC00A8EC0FF020EE02F04450D9264550DA2246
:1027DC00380EDE6E040EDD6E44C0D9FF45C0DAFF44
:1027EC00480EDF6E44C0D9FF45C0DAFF000EDB8E09
:1027FC001200066E000E076E040E086E0150026E7B
:10280C00036AD890023603360650046E056AD890D7
:10281C0004360536D890043605360250042603508B
:10282C000522D89004360536D89004360536045067
:10283C0007260550082207C0D9FF08C0DAFFDF9E23
:10284C000150D8A42CEF14F02EEF14F03CEF14F040
:10285C000650020D6A0EF324D96E000EF420DA6EC7
:10286C0007C0DEFF08C0DDFF48EF14F00650020D74
:10287C00440EF324D96E000EF420DA6E07C0DEFF8E
:10288C0008C0DDFF07C0D9FF08C0DAFFDF9C20EECF
:10289C0004F00750D9260850DA22DF8C1200000E03
:1028AC005B6E000E546E000E0001906F000E8F6F69
:1028BC00000E566E000E5A6E44C0D9FF45C0DAFFAA
:1028CC007F0EDF16040E4418446E4550456E44C00E
:1028DC00D9FF45C0DAFF7F0EDF16040E4418446E94
:1028EC004550456E4CC0D9FF4DC0DAFF7F0EDF1648
:1028FC00000E416E000E436E000E426E000E396EDD
:10290C00000E3B6E000E3A6E8FEC0EF0000E0E6E4B
:10291C00030E0D6E000E0F6E000E106E000E126E7A
:10292C00000E116E50EC13F00EEC0CF01200020EB7
:10293C005A18D8A4A4EF14F0A6EF14F0AAEF14F0D0
:10294C00B0EC0CF0D6EF14F0000E5A6E5650D8A422
:10295C00B2EF14F0B4EF14F0D4EF14F020EE01F059
:10296C004C50D9264D50DA22080EDF6E20EE02F0C4
:10297C004C50D9264D50DA22300EDE6E040EDD6E30
:10298C004CC0D9FF4DC0DAFF0C0EDF6E4CC0D9FF26
:10299C004DC0DAFF000EDB8ED6EF14F0000E566E33
:1029AC001200A09A5150D8B4DEEF14F0E0EF14F0FE
:1029BC00E3EF14F0A08A0EEF15F0000E2E6E2AC075
:1029CC002CF02BC02DF02E2A2E28D8A4F0EF14F0CA
:1029DC00F2EF14F0F4EF14F002EF15F02CC0D9FF65
:1029EC002DC0DAFF2C4A2D2ADF50D8A400EF15F0A9
:1029FC0002EF15F0E9EF14F02AC07BF02BC07CF04D
:102A0C002EC050F0000E00018C6F010E516EA08A8A
:102A1C0012002C6E2BEF15F081A817EF15F01AEFA2
:102A2C0015F0010E1BEF15F0000E44EF15F081AA06
:102A3C0022EF15F025EF15F0010E26EF15F0000E24
:102A4C0044EF15F0000E44EF15F02C502A6E2B6A53
:102A5C002B50000AD8B435EF15F028EF15F02A509A
:102A6C00000AD8B428EF15F0010AD8B412EF15F00B
:102A7C00030AD8B41DEF15F028EF15F01200000E64
:102A8C000001D96F4B0EDA6F000EDB6F000EDC6F9E
:102A9C00000EDD6F000EDE6F080EDF6F000E8D6F07
:102AAC001A0E096E010EE9EC16F01E0E096E020EDE
:102ABC00E9EC16F0000E016E400E026E050E036E70
:102ACC00400E046E020EF0EC0DF001C086F002C058
:102ADC0087F0000E0001846F000E856F000E516EA2
:102AEC0012002C6E86EF15F09590A7EF15F09592CD
:102AFC00A7EF15F09594A7EF15F09596A7EF15F0A5
:102B0C002C502A6E2B6A2B50000AD8B490EF15F07B
:102B1C00A7EF15F02A50000AD8B4A7EF15F0010A58
:102B2C00D8B47AEF15F0030AD8B47DEF15F0010A8A
:102B3C00D8B480EF15F0070AD8B483EF15F0A7EFDF
:102B4C0015F01200036EB7EF15F09590D8EF15F055
:102B5C009592D8EF15F09594D8EF15F09596D8EF8F
:102B6C0015F00350016E026A0250000AD8B4C1EF8E
:102B7C0015F0D8EF15F00150000AD8B4D8EF15F0C5
:102B8C00010AD8B4ABEF15F0030AD8B4AEEF15F0C8
:102B9C00010AD8B4B1EF15F0070AD8B4B4EF15F0A8
:102BAC00D8EF15F01200036EE8EF15F08C8009EFEA
:102BBC0016F08C8209EF16F08C8409EF16F08C86D7
:102BCC0009EF16F00350016E026A0250000AD8B4E5
:102BDC00F2EF15F009EF16F00150000AD8B409EF26
:102BEC0016F0010AD8B4DCEF15F0030AD8B4DFEF05
:102BFC0015F0010AD8B4E2EF15F0070AD8B4E5EFE6
:102C0C0015F009EF16F01200036E19EF16F08C9008
:102C1C003AEF16F08C923AEF16F08C943AEF16F0DD
:102C2C008C963AEF16F00350016E026A0250000ABD
:102C3C00D8B423EF16F03AEF16F00150000AD8B4CE
:102C4C003AEF16F0010AD8B40DEF16F0030AD8B417
:102C5C0010EF16F0010AD8B413EF16F0070AD8B427
:102C6C0016EF16F03AEF16F0120070A040EF16F0C7
:102C7C0042EF16F069EF16F04EC0D9FF4FC0DAFFE5
:102C8C00800EDE18D8A44DEF16F04FEF16F068EF5B
:102C9C0016F044C0D9FF45C0DAFF840EDE18D8A464
:102CAC005AEF16F05CEF16F068EF16F04EC0D9FF35
:102CBC004FC0DAFF0C0EDF6E4EC0D9FF4FC0DAFFEB
:102CCC00000EDB8E7090689A12000600E1CF20F0A7
:102CDC00E2CF21F0D9CF22F0DACF23F0F3CF24F0DA
:102CEC00F4CF25F0F6CF26F0F7CF27F0F8CF28F069
:102CFC00F5CF29F010EC06F029C0F5FF28C0F8FF3D
:102D0C0027C0F7FF26C0F6FF25C0F4FF24C0F3FF51
:102D1C0023C0DAFF22C0D9FF21C0E2FF20C0E1FFAF
:102D2C005F921100900EF66E300EF76E000EF86E7C
:102D3C0000EEE2F010EE12F00900F5CFEEFFE550D8
:102D4C00E150FAE101EE00F0400EEE6AE806FDE11A
:102D5C0000EE60F0820EEE6AE806FDE100EE36F061
:102D6C00290EEE6AE806FDE15F905F92000EF86EA8
:102D7C0000013BEF18F003C009F004C00AF001C0D9
:102D8C0007F002C008F0DBEF16F009C0D9FF0AC04B
:102D9C00DAFFDF500B6E094A0A2A07C0D9FF08C0B8
:102DAC00DAFF0BC0DFFF074A082A0506D8A0060683
:102DBC00052806E10628D8A4E6EF16F0E8EF16F091
:102DCC00CBEF16F012000C6E09A4EFEF16F0F1EF3A
:102DDC0016F0F6EF16F0000E016E0C50FFEC13F02F
:102DEC0009A2FBEF16F0FDEF16F002EF17F0010E43
:102DFC00016E0C50FFEC13F0700E0C240A6E0B6A73
:102E0C000F0E0B220AC0D9FF0BC0DAFF09C0DFFF7F
:102E1C0012002F6E1AEF17F0010E77EC15F0010E61
:102E2C007CEC17F033EF17F02F502D6E2E6A2E50CE
:102E3C00000AD8B424EF17F033EF17F02D50000A26
:102E4C00D8B412EF17F0010AD8B433EF17F0030A15
:102E5C00D8B433EF17F033EF17F01200066E3FEFD4
:102E6C0017F0010EA8EC15F0010E9FEC17F058EFBF
:102E7C0017F00650046E056A0550000AD8B449EFE5
:102E8C0017F058EF17F00450000AD8B437EF17F0CA
:102E9C00010AD8B458EF17F0030AD8B458EF17F05A
:102EAC0058EF17F012005C50D8A45FEF17F061EFE9
:102EBC0017F07BEF17F0000E6D6E000E696E160E9C
:102ECC006F6E9F0E6B6E7B0E696ED08EA28AA08A7F
:102EDC00F28E72EF17F06D866DA677EF17F079EF23
:102EEC0017F071EF17F0010E5C6E12002C6E85EF6F
:102EFC0017F093889EEF17F0938A9EEF17F02C50E3
:102F0C002A6E2B6A2B50000AD8B48FEF17F09EEF65
:102F1C0017F02A50000AD8B49EEF17F0010AD8B463
:102F2C007FEF17F0030AD8B482EF17F09EEF17F07B
:102F3C001200036EA8EF17F09388C1EF17F0938A75
:102F4C00C1EF17F00350016E026A0250000AD8B4A8
:102F5C00B2EF17F0C1EF17F00150000AD8B4C1EF6F
:102F6C0017F0010AD8B4A2EF17F0030AD8B4A5EFF2
:102F7C0017F0C1EF17F01200000E586E000E0E6E17
:102F8C00740E0D6E000E0F6E000E106E000E126E93
:102F9C00000E116E50EC13F06D926994D7EF17F090
:102FAC00689468B4DCEF17F0DEEF17F0D6EF17F08B
:102FBC00000E00018E6F1200010E00017427000E2E
:102FCC007523762377235850D8A4EFEF17F0F1EF41
:102FDC0017F0FBEF17F08E2B8E51D8A4F8EF17F0EB
:102FEC00FAEF17F0FBEF17F08E69120069846898FE
:102FFC006D82010E586E000E00018E6F000E0E6E6B
:10300C00750E0D6E000E0F6E000E106E000E126E11
:10301C00000E116E50EC13F01200A09A5150D8A46F
:10302C001AEF18F01CEF18F027EF18F02AC07BF0FD
:10303C002BC07CF02CC050F0010E00018C6F010EE7
:10304C00516EA08A1200000E0001DD6F080EDF6FBA
:10305C00000EDE6F800ED96F250EDA6F000EDB6F5F
:10306C00000EDC6F000E8A6F1200000E0FEC17F0D2
:10307C00C3EC0AF059EC17F016EC0AF042EF18F01A
:10308C0007EF00F0427574746F6E20707265737385
:06309C0065642E0D0A0020
:020000040020DA
:08000000FFFFFFFFFFFFFFFF00
:020000040030CA
:0E000000210E3F1EFF0181FF0FC00FE00F40D9
:00000001FF
