:04000000EDEF08F028
:10100000005072657373203120666F7220526564E0
:101010002C203220666F722059656C6C6F772C2003
:101020003320666F7220477265656E202E2E2E0D5E
:101030000057656C636F6D6520746F20434F3332CA
:0910400036204C6162330D000002
:10104A00D2EC08F0310E086E100E096E83EC08F02F
:10105A00010E086E100E096E83EC08F0A0EC08F081
:10106A000C6E8A928A948A9649EF08F08A8233EF44
:10107A0008F08A8433EF08F08A8633EF08F08A9200
:10108A008A948A9633EF08F00C500A6E0B6A0B505A
:10109A00000AD8B453EF08F044EF08F00A50310AB6
:1010AA00D8B43BEF08F0030AD8B43EEF08F0010ABF
:1010BA00D8B441EF08F044EF08F000EF00F0080E52
:1010CA00B86E900EAB6E240EAC6ECF0EAF6E000EE5
:1010DA00B06E000E076E000E086EE3EC08F0000E0C
:1010EA00076E000E086EDEEC08F0000E076E000EAA
:1010FA00086EE8EC08F0000E0D6E120090EF08F092
:10110A0008C0F6FF09C0F7FFF86A0800F550C7ECF7
:10111A0008F0084A092A08C0F6FF09C0F7FFF86A6A
:10112A000800F5500009D8A49DEF08F09FEF08F0D9
:10113A0085EF08F012009EAAA5EF08F0A7EF08F0C5
:10114A00A0EF08F0000E0D6EABA2AEEF08F0B0EF04
:10115A0008F0B2EF08F0AB98AB88AE501200000E60
:10116A00896E000E8A6E000E8B6E9268F10E936E77
:10117A00BF0E946E1F0E7E6E1F0E7F6E000E7C6E6B
:10118A00F18E1200076E9EA8CDEF08F0CFEF08F09F
:10119A00C8EF08F007C0ADFF1200B4EC08F0D9ECB4
:1011AA0008F064EC08F01200620ED36E000E9B6E1B
:1011BA00120007C003F008C004F0120007C005F0CF
:1011CA0008C006F0120007C001F008C002F01200C1
:0811DA000D6A000125EF08F089
:020000040020DA
:08000000FFFFFFFFFFFFFFFF00
:020000040030CA
:0E000000FF081F1EFF8985FF0FC00FE00F4095
:00000001FF
